S0130000736572766F206D6F746F722E7372656391
S11300000C942A000C9434000C9434000C943400A6
S11300100C9434000C9434000C9434000C9434008C
S11300200C9434000C9434000C9434000C9434007C
S11300300C9434000C9434000C9434000C9434006C
S11300400C9434000C9434000C9434000C9434005C
S11300500C94340011241FBECFE5D4E0DEBFCDBF25
S11300600E9436000C9476000C9400008FEF84BB41
S113007081E085BB2FEF39E698E121503040904074
S1130080E1F700C0000015BA2FEF33ED90E32150E3
S113009030409040E1F700C0000085BB2FEF3EE9FF
S11300A094E2215030409040E1F700C0000015BABE
S11300B02FEF33ED90E3215030409040E1F700C042
S11300C0000085BB2FEF33ED80E3215030408040AA
S11300D0E1F700C0000015BA9FEF23ED30E3915023
S11300E020403040E1F700C00000C2CFF894FFCFB9
S9030000FC
