S0160000554152545F436F6D6D755F5245432E7372656339
S11300000C942A000C943F000C943F000C943F0085
S11300100C943F000C943F000C943F000C943F0060
S11300200C943F000C943F000C943F000C943F0050
S11300300C943F000C943F000C943F000C943F0040
S11300400C943F000C943F000C943F000C943F0030
S11300500C943F0011241FBECFE5D4E0DEBFCDBF1A
S113006010E0A0E6B0E0E4E5F1E002C005900D92F6
S1130070AA39B107D9F70E947E000C94A8000C9409
S113008000001BB888E18AB986E880BD10BC83E310
S113009089B908955D9BFECF8CB908955F9BFECF0F
S11300A08CB108951F93CF93DF93CDB7DEB76C97D0
S11300B00FB6F894DEBF0FBECDBF8CE1E0E6F0E0F2
S11300C0DE01119601900D928A95E1F710E003C0CC
S11300D00E944A001F5FE1E0F0E0EC0FFD1FE10F1A
S11300E0F11D80818111F4CF6C960FB6F894DEBFB8
S11300F00FBECDBFDF91CF911F910895CF93DF93B2
S1130100CDB7DEB76D970FB6F894DEBF0FBECDBF87
S11301108DE1ECE7F0E0DE01119601900D928A95F5
S1130120E1F70E94410010E003C00E944A001F5FF3
S1130130E1E0F0E0EC0FFD1FE10FF11D8081811182
S1130140F4CF0E944E008134E1F70E945200F9CFAF
S1070150F894FFCF4D
S1130154456D626564646564204761726167652006
S11301645475746F7269616C73210D0048656C6C0D
S11301746F2045766572796F6E652057656C636F81
S10D01846D6520746F3A200D000031
S9030000FC
