S01A0000554152545F434F4D4D554E49434154494F4E2E7372656399
S11300000C942A000C943F000C943F000C943F0085
S11300100C943F000C943F000C943F000C943F0060
S11300200C943F000C943F000C943F000C943F0050
S11300300C943F000C943F000C943F000C943F0040
S11300400C943F000C943F000C943F000C943F0030
S11300500C943F0011241FBECFE5D4E0DEBFCDBF1A
S113006010E0A0E6B0E0E4E1F1E002C005900D92FA
S1130070A838B107D9F70E9483000C9488000C9427
S113008000001BB888E18AB986E880BD10BC83E310
S113009089B908955D9BFECF8CB908951F93CF93C2
S11300A0DF93CDB7DEB7A7970FB6F894DEBF0FBEC8
S11300B0CDBF87E2E0E6F0E0DE01119601900D92FB
S11300C08A95E1F710E003C00E944A001F5FE1E057
S11300D0F0E0EC0FFD1FE10FF11D80818111F4CFE1
S11300E02FEF89E698E1215080409040E1F700C06D
S11300F00000A7960FB6F894DEBF0FBECDBFDF9108
S1130100CF911F9108950E9441000E944E00FDCF9F
S1070110F894FFCF8D
S113011457656C636F6D6520746F20456D6265640B
S113012464656420476172616765205475746F72F5
S10B013469616C73210D0000E8
S9030000FC
