S0100000377365676D656E742E73726563EA
S11300000C942A000C943F000C943F000C943F0085
S11300100C943F000C943F000C943F000C943F0060
S11300200C943F000C943F000C943F000C943F0050
S11300300C943F000C943F000C943F000C943F0040
S11300400C943F000C943F000C943F000C943F0030
S11300500C943F0011241FBECFE5D4E0DEBFCDBF1A
S113006010E0A0E6B0E0EAEEF0E002C005900D92E8
S1130070A437B107D9F70E9441000C9473000C9483
S11300800000CF93DF93CDB7DEB764970FB6F89433
S1130090DEBF0FBECDBF8FEF81BB87BB84E1E0E63F
S11300A0F0E0DE01119601900D928A95E1F780E06F
S11300B090E015C0FC01EE0FFF1F21E030E02C0F93
S11300C03D1FE20FF31F208122BB3FEF4EE924E2E4
S11300D0315040402040E1F700C0000001968A30D2
S10D00E0910544F3E4CFF894FFCF38
S11300EA3F0006005B004F0066006D007D000700BC
S10700FA7F006F0010
S9030000FC
