:100000000C942A000C9434000C9434000C943400AA
:100010000C9434000C9434000C9434000C94340090
:100020000C9434000C9434000C9434000C94340080
:100030000C9434000C9434000C9434000C94340070
:100040000C9434000C9434000C9434000C94340060
:100050000C94340011241FBECFE5D4E0DEBFCDBF29
:100060000E9467000C946D000C94000089E085BB31
:1000700088BB2FEF8BE792E9215080409040E1F759
:1000800000C000008CE085BB88BB2FEF8BE792E9B6
:10009000215080409040E1F700C0000086E085BB21
:1000A00088BB2FEF8BE792E9215080409040E1F729
:1000B00000C0000083E085BB88BB2FEF8BE792E98F
:1000C000215080409040E1F700C0000008958FEF7C
:0E00D00084BB87BB0E943600FDCFF894FFCFA3
:00000001FF
