:100000000C942A000C943F000C943F000C943F0089
:100010000C943F000C943F000C943F000C943F0064
:100020000C943F000C943F000C943F000C943F0054
:100030000C943F000C943F000C943F000C943F0044
:100040000C943F000C943F000C943F000C943F0034
:100050000C943F0011241FBECFE5D4E0DEBFCDBF1E
:1000600010E0A0E6B0E0EEE6F3E002C005900D92ED
:10007000AC37B107D9F70E9484010C94B5010C94F8
:10008000000088BB84E08BBB8FE295E70197F1F716
:1000900000C000001BBA8FE295E70197F1F700C09E
:1000A0000000089588BB85E08BBB8FE295E7019740
:1000B000F1F700C0000081E08BBB8FE295E701976C
:1000C000F1F700C0000008950F931F93CF93DF93C3
:1000D000CDB7DEB728970FB6F894DEBF0FBECDBF01
:1000E00085E085BB81E00E9441008FE295E70197A2
:1000F000F1F700C0000088E0E0E6F0E0DE011196D4
:1001000001900D928A95E1F700E010E00AC00E948C
:1001100052000F5F1F4F8FE295E70197F1F700C084
:100120000000E1E0F0E0EC0FFD1FE00FF11F808127
:100130008111EDCF9FEF2CED8DE691502040804056
:10014000E1F700C0000028960FB6F894DEBF0FBE9E
:10015000CDBFDF91CF911F910F9108950F931F9302
:10016000CF93DF93CDB7DEB729970FB6F894DEBFF4
:100170000FBECDBF8AE085BB81E00E9441008FE2C7
:1001800095E70197F1F700C0000089E0E8E6F0E0AC
:10019000DE01119601900D928A95E1F700E010E0E2
:1001A0000AC00E9452000F5F1F4F8FE295E7019730
:1001B000F1F700C00000E1E0F0E0EC0FFD1FE00F00
:1001C000F11F80818111EDCF9FEF2CED8DE69150D5
:1001D00020408040E1F700C0000029960FB6F89457
:1001E000DEBF0FBECDBFDF91CF911F910F9108955C
:1001F0000F931F93CF93DF9300D000D000D0CDB7E3
:10020000DEB781E085BB0E9441008FE295E7019750
:10021000F1F700C0000086E0E1E7F0E0DE011196B2
:1002200001900D928A95E1F700E010E00AC00E946B
:1002300052000F5F1F4F8FE295E70197F1F700C063
:100240000000E1E0F0E0EC0FFD1FE00FF11F808106
:100250008111EDCF9FEF2CED8DE691502040804035
:10026000E1F700C0000026960FB6F894DEBF0FBE7F
:10027000CDBFDF91CF911F910F9108950F931F93E1
:10028000CF93DF9300D000D01F92CDB7DEB788E0C8
:1002900085BB81E00E9441008FE295E70197F1F76D
:1002A00000C0000085E0E7E7F0E0DE011196019074
:1002B0000D928A95E1F700E010E00AC00E9452001A
:1002C0000F5F1F4F8FE295E70197F1F700C0000025
:1002D000E1E0F0E0EC0FFD1FE00FF11F80818111E4
:1002E000EDCF9FEF2CED8DE6915020408040E1F75F
:1002F00000C000000F900F900F900F900F90DF91B3
:10030000CF911F910F9108958FEF8ABB87BB84BB5C
:1003100088E30E9441008FE295E70197F1F700C062
:1003200000008EE00E9441008FE295E70197F1F70F
:1003300000C0000081E00E9441008FE295E7019734
:10034000F1F700C0000080E80E9441008FE295E7CD
:100350000197F1F700C000000E9464000E94AE0007
:0E0360000E94F8000E943E01F7CFF894FFCFF4
:10036E00464F5257415244004241434B574152442B
:0C037E00005249474854004C45465400CA
:00000001FF
