S015000074776F5F377365676D656E745F2E73726563CD
S11300000C942A000C943F000C943F000C943F0085
S11300100C943F000C943F000C943F000C943F0060
S11300200C943F000C943F000C943F000C943F0050
S11300300C943F000C943F000C943F000C943F0040
S11300400C943F000C943F000C943F000C943F0030
S11300500C943F0011241FBECFE5D4E0DEBFCDBF1A
S113006010E0A0E6B0E0E0E1F1E002C005900D92FE
S1130070A437B107D9F70E9441000C9486000C9470
S11300800000CF93DF93CDB7DEB764970FB6F89433
S1130090DEBF0FBECDBF8FEF81BB87BB84E1E0E63F
S11300A0F0E0DE01119601900D928A95E1F740E0AF
S11300B050E028C0FA01EE0FFF1F21E030E02C0FC2
S11300C03D1FE20FF31F808182BB80E090E015C0EA
S11300D0FC01EE0FFF1F21E030E02C0F3D1FE20F6B
S11300E0F31F208128BB3FE76CEF2AE031506040CA
S11300F02040E1F700C0000001968A30910544F3E6
S11301004F5F5F4F4A305105ACF2D1CFF894FFCF27
S11301103F0006005B004F0066006D007D00070095
S10701207F006F00E9
S9030000FC
