:100000000C942A000C943F000C943F000C943F0089
:100010000C943F000C943F000C943F000C943F0064
:100020000C943F000C943F000C943F000C943F0054
:100030000C943F000C943F000C943F000C943F0044
:100040000C943F000C943F000C943F000C943F0034
:100050000C943F0011241FBECFE5D4E0DEBFCDBF1E
:1000600010E0A0E6B0E0EAEEF1E002C005900D92EB
:10007000A03AB107D9F70E94C4000C94F3000C9485
:1000800000001BB888E18AB986E880BD10BC83E314
:1000900089B908955D9BFECF8CB908955F9BFECF13
:1000A0008CB108951F93CF93DF93CDB7DEB76197DF
:1000B0000FB6F894DEBF0FBECDBF81E1E0E6F0E001
:1000C000DE01119601900D928A95E1F710E003C0D0
:1000D0000E944A001F5FE1E0F0E0EC0FFD1FE10F1E
:1000E000F11D80818111F4CF8FEF8ABB81E08BBB42
:1000F0002FEF89E698E1215080409040E1F700C061
:10010000000061960FB6F894DEBF0FBECDBFDF9141
:10011000CF911F9108951F93CF93DF93CDB7DEB793
:1001200061970FB6F894DEBF0FBECDBF81E1E1E766
:10013000F0E0DE01119601900D928A95E1F710E052
:1001400003C00E944A001F5FE1E0F0E0EC0FFD1FDA
:10015000E10FF11D80818111F4CF8FEF8ABB80E820
:100160008BBB2FEF89E698E1215080409040E1F76A
:1001700000C0000061960FB6F894DEBF0FBECDBF81
:10018000DF91CF911F910895CF93DF93CDB7DEB765
:100190006D970FB6F894DEBF0FBECDBF8DE1E2E8DC
:1001A000F0E0DE01119601900D928A95E1F70E9430
:1001B000410010E003C00E944A001F5FE1E0F0E050
:1001C000EC0FFD1FE10FF11D80818111F4CF0E9422
:1001D0004E00813419F40E945200F9CF8234B9F7ED
:0A01E0000E948B00F4CFF894FFCFCB
:1001EA004C454431205455524E4544204F4E210D22
:1001FA00004C454432205455524E4544204F4E211E
:10020A000D0048656C6C6F2045766572796F6E6576
:10021A002057656C636F6D6520746F3A200D00007E
:00000001FF
