:100000000C942A000C943F000C943F000C943F0089
:100010000C943F000C943F000C943F000C943F0064
:100020000C943F000C943F000C943F000C943F0054
:100030000C943F000C943F000C943F000C943F0044
:100040000C943F000C943F000C943F000C943F0034
:100050000C943F0011241FBECFE5D4E0DEBFCDBF1E
:1000600010E0A0E6B0E0E4EAF1E002C005900D92F5
:10007000A837B107D9F70E9471000C94D0000C94F6
:10008000000088BB84E08BBB8FE295E70197F1F716
:1000900000C000001BBA8FE295E70197F1F700C09E
:1000A0000000089588BB85E08BBB8FE295E7019740
:1000B000F1F700C0000081E08BBB8FE295E701976C
:1000C000F1F700C000000895CF93DF93EC0103C067
:1000D0000E945200219688818111FACFDF91CF9141
:1000E0000895CF93DF93CDB7DEB768970FB6F89436
:1000F000DEBF0FBECDBF8FEF8ABB87BB88E30E94F8
:1001000041008FE295E70197F1F700C000008EE013
:100110000E9441008FE295E70197F1F700C00000CF
:1001200081E00E9441008FE295E70197F1F700C05E
:10013000000080E80E9441008FE295E70197F1F707
:1001400000C000008DE0E0E6F0E0DE0111960190D5
:100150000D928A95E1F7CE0101960E94640080EC31
:100160000E9441008FE295E70197F1F700C000007F
:100170008BE0EDE6F0E0DE011E9601900D928A958F
:10018000E1F7CE010E960E94640080E090E0689650
:100190000FB6F894DEBF0FBECDBFDF91CF910895AB
:0401A000F894FFCF01
:1001A4006869692120686F77207220750069206171
:0801B4006D2066696E652100F3
:00000001FF
