S01E0000546865726D6973746F725F696E746572666163696E672E73726563EC
S11300000C942A000C943F000C943F000C943F0085
S11300100C943F000C943F000C943F000C943F0060
S11300200C943F000C943F000C943F000C943F0050
S11300300C943F000C943F000C943F000C943F0040
S11300400C943F000C943F000C943F000C943F0030
S11300500C943F0011241FBECFE5D4E0DEBFCDBF1A
S113006010E0A0E6B0E0EAE5F6E002C005900D92EB
S1130070AC37B107D9F70E9407010C942B030C94F9
S1130080000088BB84E085BB8FE295E70197F1F718
S113009000C0000015BA8FE295E70197F1F700C0A0
S11300A00000089588BB85E085BB8FE295E7019742
S11300B0F1F700C0000081E085BB8FE295E701976E
S11300C0F1F700C0000008951ABA80E487B983EC00
S11300D086B9089597B1892B87B986B1806486B9AA
S11300E0349BFECF86B1806186B924B135B180E0FE
S11300F0932F822B0895CF93DF93EC0103C00E94CA
S11301005200219688818111FACFDF91CF91089511
S1130110CF92DF92EF92FF921F93CF93DF9300D0A1
S113012000D0CDB7DEB720E330E33A8329833C83A4
S11301302B83BC0180E090E00E94FD0120E030E0D0
S113014040EA50E40E94AF0220E030EC4FE754E470
S11301500E945C016B017C0120E030E04AE754E43A
S11301600E94AF020E94CE01AB0113E02DC09A01A0
S1130170ADECBCEC0E941C039695879596958795EB
S1130180969587959C01220F331F880F991F880F1E
S1130190991F880F991F820F931F9A01281B390BEF
S11301A0C901E1E0F0E0EC0FFD1FE10FF11D805DFE
S11301B080839A010E941C03AC015695479556957D
S11301C047955695479511504115510581F68981FA
S11301D00E9452008EE20E9452008A810E945200C4
S11301E08B810E9452008C810E945200C701B6018B
S11301F00F900F900F900F90DF91CF911F91FF9070
S1130200EF90DF90CF90089585E482BB08958FEF3F
S113021084BB87BB81BB0E94640088E30E944100C9
S11302208FE295E70197F1F700C000008EE00E948D
S113023041008FE295E70197F1F700C0000081E0EB
S11302400E9441008FE295E70197F1F700C000009A
S113025080E80E94410080E690E00E947B0080ECF0
S11302600E94410081E790E00E947B008AEC0E949A
S1130270410080E00E946A000E94880020E030E093
S113028040E250E40E94570188231CF40E940401B8
S113029001C012BA8AEC0E9441009FEF2EE984E269
S11302A0915020408040E1F700C00000E2CF0E945E
S11302B03A0208F481E008950E9470010C947502DA
S11302C00E946E0258F00E94670240F029F45F3FDA
S11302D029F00C945E0251110C94A9020C9464024E
S11302E00E94860268F39923B1F3552391F3951B79
S11302F0550BBB27AA2762177307840738F09F5F43
S11303005F4F220F331F441FAA1FA9F335D00E2EAF
S11303103AF0E0E832D091505040E695001CCAF71C
S11303202BD0FE2F29D0660F771F881FBB1F2617DF
S113033037074807AB07B0E809F0BB0B802DBF01B6
S1130340FF2793585F4F3AF09E3F510578F00C9485
S11303505E020C94A9025F3FE4F3983ED4F38695C1
S113036077956795B795F7959F5FC9F7880F911DA6
S11303709695879597F90895E1E0660F771F881F92
S1130380BB1F621773078407BA0720F0621B730B45
S1130390840BBA0BEE1F88F7E09508950E948E0235
S11303A088F09F5798F0B92F9927B751B0F0E1F032
S11303B0660F771F881F991F1AF0BA95C9F714C0E2
S11303C0B13091F00E94A802B1E008950C94A80203
S11303D0672F782F8827B85F39F0B93FCCF386951B
S11303E077956795B395D9F73EF490958095709578
S11303F061957F4F8F4F9F4F0895E89409C097FBF5
S11304003EF490958095709561957F4F8F4F9F4FE7
S11304109923A9F0F92F96E9BB279395F69587952B
S113042077956795B795F111F8CFFAF4BB0F11F4EE
S113043060FF1BC06F5F7F4F8F4F9F4F16C0882395
S113044011F096E911C0772321F09EE8872F762FCB
S113045005C0662371F096E8862F70E060E02AF00C
S11304609A95660F771F881FDAF7880F96958795F8
S113047097F90895990F0008550FAA0BE0E8FEEFCD
S113048016161706E807F907C0F012161306E40754
S1130490F50798F0621B730B840B950B39F40A264D
S11304A061F0232B242B252B21F408950A2609F42B
S11304B0A140A6958FEF811D811D089597F99F672F
S11304C080E870E060E008959FEF80EC08950024D8
S11304D00A941616170618060906089500240A94A5
S11304E012161306140605060895092E0394000C2B
S11304F011F4882352F0BB0F40F4BF2B11F460FFBA
S113050004C06F5F7F4F8F4F9F4F089557FD9058E2
S1130510440F551F59F05F3F71F04795880F97FBC3
S1130520991F61F09F3F79F087950895121613067D
S11305301406551FF2CF4695F1DF08C016161706AC
S11305401806991FF1CF86957105610508940895E1
S1130550E894BB2766277727CB0197F908950E9473
S1130560C2020C9475020E94670238F00E946E0267
S113057020F0952311F00C945E020C946402112473
S11305800C94A9020E94860270F3959FC1F3950F03
S113059050E0551F629FF001729FBB27F00DB11D03
S11305A0639FAA27F00DB11DAA1F649F6627B00D93
S11305B0A11D661F829F2227B00DA11D621F739F7C
S11305C0B00DA11D621F839FA00D611D221F749F8A
S11305D03327A00D611D231F849F600D211D822FD1
S11305E0762F6A2F11249F5750409AF0F1F08823F8
S11305F04AF0EE0FFF1FBB1F661F771F881F915025
S11306005040A9F79E3F510580F00C945E020C9473
S1130610A9025F3FE4F3983ED4F3869577956795F6
S1130620B795F795E7959F5FC1F7FE2B880F911D4E
S11306309695879597F90895A29FB001B39FC0013D
S1130640A39F700D811D1124911DB29F700D811DFA
S10D06501124911D0895F894FFCFC2
S113065A544845524D4953544F5220494E54522EF0
S10F066A00564F4C544147453A20000014
S9030000FC
