S01300004B65797061645F377365672E73726563DE
S11300000C942A000C9434000C9434000C943400A6
S11300100C9434000C9434000C9434000C9434008C
S11300200C9434000C9434000C9434000C9434007C
S11300300C9434000C9434000C9434000C9434006C
S11300400C9434000C9434000C9434000C9434005C
S11300500C94340011241FBECFE5D4E0DEBFCDBF25
S11300600E948E000C949A000C94000084E085BBDE
S1130070809B05C081E08BBB86E088BB0895819B93
S113008005C088E08BBB86E688BB0895829B05C0CB
S113009080E48BBB87E088BB0895839B04C08AE21D
S11300A08BBB87E788BB089582E085BB809B04C037
S11300B08BBB8BE588BB0895819B05C080E18BBB1E
S11300C08DE688BB0895829B05C080E88BBB8FE7D3
S11300D088BB0895839B03C01BBA8FE388BB089534
S11300E081E085BB809B05C084E08BBB8FE488BB2B
S11300F00895819B05C080E28BBB8DE788BB089582
S1130100829B05C080EC88BB8FE688BB0895839BE7
S113011004C083E28BBB89E388BB08958FEF8ABB5D
S113012084BB11BA87BB0E9436000E9454000E940F
S10B01307000F9CFF894FFCF31
S9030000FC
