:100000000C942A000C9434000C9434000C943400AA
:100010000C9434000C9434000C9434000C94340090
:100020000C9434000C9434000C9434000C94340080
:100030000C9434000C9434000C9434000C94340070
:100040000C9434000C9434000C9434000C94340060
:100050000C94340011241FBECFE5D4E0DEBFCDBF29
:100060000E9436000C94B5000C9400001ABA8FEF71
:1000700087BB14BA29B383B38870922F907225FD81
:1000800018C0811116C08FEF88BB2FE78FE492E173
:10009000215080409040E1F700C0000018BA2FE7DF
:1000A0008FE492E1215080409040E1F700C00000D1
:1000B000E1CF911119C08830B9F48AEA88BB2FE7E3
:1000C0008FE492E1215080409040E1F700C00000B1
:1000D00085E588BB2FE78FE492E121508040904076
:1000E000E1F700C00000C6CF9032C9F4811117C0FB
:1000F00080EF88BB2FE78FE492E121508040904051
:10010000E1F700C000008FE088BB2FE78FE492E1A9
:10011000215080409040E1F700C00000ABCF90320A
:10012000C9F48830B9F48CEC88BB2FE78FE492E1F6
:10013000215080409040E1F700C0000083E388BB7D
:100140002FE78FE492E1215080409040E1F700C01A
:10015000000090CF18BA2FE78FE492E12150804041
:0E0160009040E1F700C0000085CFF894FFCF7B
:00000001FF
