:100000000C942A000C9434000C9434000C943400AA
:100010000C9434000C9434000C9434000C94340090
:100020000C9434000C9434000C9434000C94340080
:100030000C9434000C9434000C9434000C94340070
:100040000C9434000C9434000C9434000C94340060
:100050000C94340011241FBECFE5D4E0DEBFCDBF29
:100060000E945A000C948C000C94000088BB84E021
:100070008BBB8FE295E70197F1F700C000001BBA38
:100080008FE295E70197F1F700C00000089581E441
:1000900088BB85E08BBB8FE295E70197F1F700C045
:1000A000000081E08BBB8FE295E70197F1F700C07C
:1000B000000008958FEF8ABB87BB88E30E9436005B
:1000C0008FE295E70197F1F700C000008EE00E94F3
:1000D00036008FE295E70197F1F700C0000081E05C
:1000E0000E9436008FE295E70197F1F700C000000B
:1000F00080E80E9436008FE295E70197F1F700C093
:1001000000000E9447008FE295E70197F1F700C0D9
:0C011000000080E090E00895F894FFCF1C
:00000001FF
